{
  "_format": "hh-sol-artifact-1",
  "contractName": "Drive",
  "sourceName": "contracts/Drive.sol",
  "abi": [
    {
      "inputs": [
        {
          "internalType": "address",
          "name": "_address",
          "type": "address"
        }
      ],
      "name": "getExternalFile",
      "outputs": [
        {
          "internalType": "string[]",
          "name": "",
          "type": "string[]"
        }
      ],
      "stateMutability": "view",
      "type": "function"
    },
    {
      "inputs": [],
      "name": "getFile",
      "outputs": [
        {
          "components": [
            {
              "internalType": "address",
              "name": "user",
              "type": "address"
            },
            {
              "internalType": "string[]",
              "name": "fileHashes",
              "type": "string[]"
            },
            {
              "internalType": "address[]",
              "name": "allAccess",
              "type": "address[]"
            }
          ],
          "internalType": "struct Drive.UserStructure",
          "name": "",
          "type": "tuple"
        }
      ],
      "stateMutability": "view",
      "type": "function"
    },
    {
      "inputs": [
        {
          "internalType": "address",
          "name": "_address",
          "type": "address"
        }
      ],
      "name": "giveAccess",
      "outputs": [],
      "stateMutability": "nonpayable",
      "type": "function"
    },
    {
      "inputs": [],
      "name": "number_of_files",
      "outputs": [
        {
          "internalType": "uint256",
          "name": "",
          "type": "uint256"
        }
      ],
      "stateMutability": "view",
      "type": "function"
    },
    {
      "inputs": [
        {
          "internalType": "string",
          "name": "_fileHash",
          "type": "string"
        }
      ],
      "name": "setFile",
      "outputs": [],
      "stateMutability": "nonpayable",
      "type": "function"
    }
  ],
  "bytecode": "0x608060405234801561001057600080fd5b50611aa7806100206000396000f3fe608060405234801561001057600080fd5b50600436106100575760003560e01c80632fa816921461005c578063cf12e8701461007a578063e423c15814610096578063e914fb65146100b2578063ef5588c9146100e2575b600080fd5b610064610100565b60405161007191906110b7565b60405180910390f35b610094600480360381019061008f9190611119565b6103e2565b005b6100b060048036038101906100ab919061127b565b6106a4565b005b6100cc60048036038101906100c79190611119565b61094e565b6040516100d9919061134a565b60405180910390f35b6100ea610de1565b6040516100f79190611385565b60405180910390f35b610108610de7565b3373ffffffffffffffffffffffffffffffffffffffff166000803373ffffffffffffffffffffffffffffffffffffffff1673ffffffffffffffffffffffffffffffffffffffff16815260200190815260200160002060000160009054906101000a900473ffffffffffffffffffffffffffffffffffffffff1673ffffffffffffffffffffffffffffffffffffffff16146101d7576040517f08c379a00000000000000000000000000000000000000000000000000000000081526004016101ce906113fd565b60405180910390fd5b6000803373ffffffffffffffffffffffffffffffffffffffff1673ffffffffffffffffffffffffffffffffffffffff1681526020019081526020016000206040518060600160405290816000820160009054906101000a900473ffffffffffffffffffffffffffffffffffffffff1673ffffffffffffffffffffffffffffffffffffffff1673ffffffffffffffffffffffffffffffffffffffff16815260200160018201805480602002602001604051908101604052809291908181526020016000905b828210156103475783829060005260206000200180546102ba9061144c565b80601f01602080910402602001604051908101604052809291908181526020018280546102e69061144c565b80156103335780601f1061030857610100808354040283529160200191610333565b820191906000526020600020905b81548152906001019060200180831161031657829003601f168201915b50505050508152602001906001019061029b565b505050508152602001600282018054806020026020016040519081016040528092919081815260200182805480156103d457602002820191906000526020600020905b8160009054906101000a900473ffffffffffffffffffffffffffffffffffffffff1673ffffffffffffffffffffffffffffffffffffffff168152602001906001019080831161038a575b505050505081525050905090565b3373ffffffffffffffffffffffffffffffffffffffff166000808373ffffffffffffffffffffffffffffffffffffffff1673ffffffffffffffffffffffffffffffffffffffff16815260200190815260200160002060000160009054906101000a900473ffffffffffffffffffffffffffffffffffffffff1673ffffffffffffffffffffffffffffffffffffffff16036104b1576040517f08c379a00000000000000000000000000000000000000000000000000000000081526004016104a8906114ef565b60405180910390fd5b60005b6000803373ffffffffffffffffffffffffffffffffffffffff1673ffffffffffffffffffffffffffffffffffffffff168152602001908152602001600020600201805490508110156105fe578173ffffffffffffffffffffffffffffffffffffffff166000803373ffffffffffffffffffffffffffffffffffffffff1673ffffffffffffffffffffffffffffffffffffffff168152602001908152602001600020600201828154811061056a5761056961150f565b5b9060005260206000200160009054906101000a900473ffffffffffffffffffffffffffffffffffffffff1673ffffffffffffffffffffffffffffffffffffffff16036105eb576040517f08c379a00000000000000000000000000000000000000000000000000000000081526004016105e29061158a565b60405180910390fd5b80806105f6906115d9565b9150506104b4565b506000803373ffffffffffffffffffffffffffffffffffffffff1673ffffffffffffffffffffffffffffffffffffffff168152602001908152602001600020600201819080600181540180825580915050600190039060005260206000200160009091909190916101000a81548173ffffffffffffffffffffffffffffffffffffffff021916908373ffffffffffffffffffffffffffffffffffffffff16021790555050565b6040516020016106b390611652565b60405160208183030381529060405280519060200120816040516020016106da9190611698565b6040516020818303038152906040528051906020012003610730576040517f08c379a0000000000000000000000000000000000000000000000000000000008152600401610727906116fb565b60405180910390fd5b600073ffffffffffffffffffffffffffffffffffffffff166000803373ffffffffffffffffffffffffffffffffffffffff1673ffffffffffffffffffffffffffffffffffffffff16815260200190815260200160002060000160009054906101000a900473ffffffffffffffffffffffffffffffffffffffff1673ffffffffffffffffffffffffffffffffffffffff161461083e576000803373ffffffffffffffffffffffffffffffffffffffff1673ffffffffffffffffffffffffffffffffffffffff1681526020019081526020016000206001018190806001815401808255809150506001900390600052602060002001600090919091909150908161083891906118c7565b50610933565b336000803373ffffffffffffffffffffffffffffffffffffffff1673ffffffffffffffffffffffffffffffffffffffff16815260200190815260200160002060000160006101000a81548173ffffffffffffffffffffffffffffffffffffffff021916908373ffffffffffffffffffffffffffffffffffffffff1602179055506000803373ffffffffffffffffffffffffffffffffffffffff1673ffffffffffffffffffffffffffffffffffffffff1681526020019081526020016000206001018190806001815401808255809150506001900390600052602060002001600090919091909150908161093191906118c7565b505b60016000815480929190610946906115d9565b919050555050565b606080600073ffffffffffffffffffffffffffffffffffffffff166000808573ffffffffffffffffffffffffffffffffffffffff1673ffffffffffffffffffffffffffffffffffffffff16815260200190815260200160002060000160009054906101000a900473ffffffffffffffffffffffffffffffffffffffff1673ffffffffffffffffffffffffffffffffffffffff1603610a21576040517f08c379a0000000000000000000000000000000000000000000000000000000008152600401610a18906119e5565b60405180910390fd5b3373ffffffffffffffffffffffffffffffffffffffff166000808573ffffffffffffffffffffffffffffffffffffffff1673ffffffffffffffffffffffffffffffffffffffff16815260200190815260200160002060000160009054906101000a900473ffffffffffffffffffffffffffffffffffffffff1673ffffffffffffffffffffffffffffffffffffffff1603610af0576040517f08c379a0000000000000000000000000000000000000000000000000000000008152600401610ae7906119e5565b60405180910390fd5b60008060008573ffffffffffffffffffffffffffffffffffffffff1673ffffffffffffffffffffffffffffffffffffffff1681526020019081526020016000206002018054905011610b77576040517f08c379a0000000000000000000000000000000000000000000000000000000008152600401610b6e90611a51565b60405180910390fd5b60005b6000808573ffffffffffffffffffffffffffffffffffffffff1673ffffffffffffffffffffffffffffffffffffffff16815260200190815260200160002060020180549050811015610dd7573373ffffffffffffffffffffffffffffffffffffffff166000808673ffffffffffffffffffffffffffffffffffffffff1673ffffffffffffffffffffffffffffffffffffffff1681526020019081526020016000206002018281548110610c3057610c2f61150f565b5b9060005260206000200160009054906101000a900473ffffffffffffffffffffffffffffffffffffffff1673ffffffffffffffffffffffffffffffffffffffff1614610cb1576040517f08c379a0000000000000000000000000000000000000000000000000000000008152600401610ca890611a51565b60405180910390fd5b6000808573ffffffffffffffffffffffffffffffffffffffff1673ffffffffffffffffffffffffffffffffffffffff168152602001908152602001600020600101805480602002602001604051908101604052809291908181526020016000905b82821015610dbe578382906000526020600020018054610d319061144c565b80601f0160208091040260200160405190810160405280929190818152602001828054610d5d9061144c565b8015610daa5780601f10610d7f57610100808354040283529160200191610daa565b820191906000526020600020905b815481529060010190602001808311610d8d57829003601f168201915b505050505081526020019060010190610d12565b5050505091508080610dcf906115d9565b915050610b7a565b5080915050919050565b60015481565b6040518060600160405280600073ffffffffffffffffffffffffffffffffffffffff16815260200160608152602001606081525090565b600073ffffffffffffffffffffffffffffffffffffffff82169050919050565b6000610e4982610e1e565b9050919050565b610e5981610e3e565b82525050565b600081519050919050565b600082825260208201905092915050565b6000819050602082019050919050565b600081519050919050565b600082825260208201905092915050565b60005b83811015610ec5578082015181840152602081019050610eaa565b60008484015250505050565b6000601f19601f8301169050919050565b6000610eed82610e8b565b610ef78185610e96565b9350610f07818560208601610ea7565b610f1081610ed1565b840191505092915050565b6000610f278383610ee2565b905092915050565b6000602082019050919050565b6000610f4782610e5f565b610f518185610e6a565b935083602082028501610f6385610e7b565b8060005b85811015610f9f5784840389528151610f808582610f1b565b9450610f8b83610f2f565b925060208a01995050600181019050610f67565b50829750879550505050505092915050565b600081519050919050565b600082825260208201905092915050565b6000819050602082019050919050565b6000610fe98383610e50565b60208301905092915050565b6000602082019050919050565b600061100d82610fb1565b6110178185610fbc565b935061102283610fcd565b8060005b8381101561105357815161103a8882610fdd565b975061104583610ff5565b925050600181019050611026565b5085935050505092915050565b60006060830160008301516110786000860182610e50565b50602083015184820360208601526110908282610f3c565b915050604083015184820360408601526110aa8282611002565b9150508091505092915050565b600060208201905081810360008301526110d18184611060565b905092915050565b6000604051905090565b600080fd5b600080fd5b6110f681610e3e565b811461110157600080fd5b50565b600081359050611113816110ed565b92915050565b60006020828403121561112f5761112e6110e3565b5b600061113d84828501611104565b91505092915050565b600080fd5b600080fd5b7f4e487b7100000000000000000000000000000000000000000000000000000000600052604160045260246000fd5b61118882610ed1565b810181811067ffffffffffffffff821117156111a7576111a6611150565b5b80604052505050565b60006111ba6110d9565b90506111c6828261117f565b919050565b600067ffffffffffffffff8211156111e6576111e5611150565b5b6111ef82610ed1565b9050602081019050919050565b82818337600083830152505050565b600061121e611219846111cb565b6111b0565b90508281526020810184848401111561123a5761123961114b565b5b6112458482856111fc565b509392505050565b600082601f83011261126257611261611146565b5b813561127284826020860161120b565b91505092915050565b600060208284031215611291576112906110e3565b5b600082013567ffffffffffffffff8111156112af576112ae6110e8565b5b6112bb8482850161124d565b91505092915050565b600082825260208201905092915050565b60006112e082610e5f565b6112ea81856112c4565b9350836020820285016112fc85610e7b565b8060005b8581101561133857848403895281516113198582610f1b565b945061132483610f2f565b925060208a01995050600181019050611300565b50829750879550505050505092915050565b6000602082019050818103600083015261136481846112d5565b905092915050565b6000819050919050565b61137f8161136c565b82525050565b600060208201905061139a6000830184611376565b92915050565b600082825260208201905092915050565b7f46696c6573206e6f7420666f756e640000000000000000000000000000000000600082015250565b60006113e7600f836113a0565b91506113f2826113b1565b602082019050919050565b60006020820190508181036000830152611416816113da565b9050919050565b7f4e487b7100000000000000000000000000000000000000000000000000000000600052602260045260246000fd5b6000600282049050600182168061146457607f821691505b6020821081036114775761147661141d565b5b50919050565b7f596f752063616e277420676976652061636365737320746f20796f757273656c60008201527f6600000000000000000000000000000000000000000000000000000000000000602082015250565b60006114d96021836113a0565b91506114e48261147d565b604082019050919050565b60006020820190508181036000830152611508816114cc565b9050919050565b7f4e487b7100000000000000000000000000000000000000000000000000000000600052603260045260246000fd5b7f546869732075736572206861732061636365737320616c726561647900000000600082015250565b6000611574601c836113a0565b915061157f8261153e565b602082019050919050565b600060208201905081810360008301526115a381611567565b9050919050565b7f4e487b7100000000000000000000000000000000000000000000000000000000600052601160045260246000fd5b60006115e48261136c565b91507fffffffffffffffffffffffffffffffffffffffffffffffffffffffffffffffff8203611616576116156115aa565b5b600182019050919050565b600081905092915050565b50565b600061163c600083611621565b91506116478261162c565b600082019050919050565b600061165d8261162f565b9150819050919050565b600061167282610e8b565b61167c8185611621565b935061168c818560208601610ea7565b80840191505092915050565b60006116a48284611667565b915081905092915050565b7f46696c6520686173682069732072657175697265640000000000000000000000600082015250565b60006116e56015836113a0565b91506116f0826116af565b602082019050919050565b60006020820190508181036000830152611714816116d8565b9050919050565b60008190508160005260206000209050919050565b60006020601f8301049050919050565b600082821b905092915050565b60006008830261177d7fffffffffffffffffffffffffffffffffffffffffffffffffffffffffffffffff82611740565b6117878683611740565b95508019841693508086168417925050509392505050565b6000819050919050565b60006117c46117bf6117ba8461136c565b61179f565b61136c565b9050919050565b6000819050919050565b6117de836117a9565b6117f26117ea826117cb565b84845461174d565b825550505050565b600090565b6118076117fa565b6118128184846117d5565b505050565b5b818110156118365761182b6000826117ff565b600181019050611818565b5050565b601f82111561187b5761184c8161171b565b61185584611730565b81016020851015611864578190505b61187861187085611730565b830182611817565b50505b505050565b600082821c905092915050565b600061189e60001984600802611880565b1980831691505092915050565b60006118b7838361188d565b9150826002028217905092915050565b6118d082610e8b565b67ffffffffffffffff8111156118e9576118e8611150565b5b6118f3825461144c565b6118fe82828561183a565b600060209050601f831160018114611931576000841561191f578287015190505b61192985826118ab565b865550611991565b601f19841661193f8661171b565b60005b8281101561196757848901518255600182019150602085019450602081019050611942565b868310156119845784890151611980601f89168261188d565b8355505b6001600288020188555050505b505050505050565b7f546869732061646472657373206973206e6f7420617661696c61626c65000000600082015250565b60006119cf601d836113a0565b91506119da82611999565b602082019050919050565b600060208201905081810360008301526119fe816119c2565b9050919050565b7f4163636573732044656e69656400000000000000000000000000000000000000600082015250565b6000611a3b600d836113a0565b9150611a4682611a05565b602082019050919050565b60006020820190508181036000830152611a6a81611a2e565b905091905056fea26469706673582212208d3a3640aaa176ac11b6eb74fd6c460b27d979876cfd8ec1e44e4b5d94687acc64736f6c63430008130033",
  "linkReferences": {},
  "deployedLinkReferences": {}
}